{
  "_format": "hh-sol-artifact-1",
  "contractName": "FormContract",
  "sourceName": "contracts/formContract.sol",
  "abi": [
    {
      "inputs": [
        {
          "internalType": "uint256",
          "name": "amount",
          "type": "uint256"
        },
        {
          "internalType": "address",
          "name": "creator",
          "type": "address"
        }
      ],
      "name": "addCollectionFormResponses",
      "outputs": [],
      "stateMutability": "payable",
      "type": "function"
    },
    {
      "inputs": [
        {
          "internalType": "string",
          "name": "formId",
          "type": "string"
        },
        {
          "internalType": "uint256",
          "name": "amount",
          "type": "uint256"
        }
      ],
      "name": "addSurveyFormLockedAmount",
      "outputs": [],
      "stateMutability": "payable",
      "type": "function"
    },
    {
      "inputs": [
        {
          "internalType": "string",
          "name": "responseId",
          "type": "string"
        }
      ],
      "name": "createCustomResponseEntry",
      "outputs": [],
      "stateMutability": "nonpayable",
      "type": "function"
    },
    {
      "inputs": [
        {
          "internalType": "string",
          "name": "formId",
          "type": "string"
        }
      ],
      "name": "createFormCreatedEntry",
      "outputs": [],
      "stateMutability": "nonpayable",
      "type": "function"
    },
    {
      "inputs": [
        {
          "internalType": "string",
          "name": "formId",
          "type": "string"
        },
        {
          "internalType": "string",
          "name": "responseId",
          "type": "string"
        }
      ],
      "name": "createFormResponseEntry",
      "outputs": [],
      "stateMutability": "nonpayable",
      "type": "function"
    },
    {
      "inputs": [],
      "name": "getAllFormCreated",
      "outputs": [
        {
          "internalType": "string[]",
          "name": "",
          "type": "string[]"
        }
      ],
      "stateMutability": "view",
      "type": "function"
    },
    {
      "inputs": [
        {
          "internalType": "string",
          "name": "formId",
          "type": "string"
        }
      ],
      "name": "getAllFormResponses",
      "outputs": [
        {
          "internalType": "string[]",
          "name": "",
          "type": "string[]"
        }
      ],
      "stateMutability": "view",
      "type": "function"
    },
    {
      "inputs": [],
      "name": "getCustomResponses",
      "outputs": [
        {
          "internalType": "string",
          "name": "",
          "type": "string"
        }
      ],
      "stateMutability": "view",
      "type": "function"
    },
    {
      "inputs": [
        {
          "internalType": "string",
          "name": "formId",
          "type": "string"
        }
      ],
      "name": "getSurveyFormLockedAmount",
      "outputs": [
        {
          "components": [
            {
              "internalType": "uint256",
              "name": "amount",
              "type": "uint256"
            },
            {
              "internalType": "bool",
              "name": "status",
              "type": "bool"
            }
          ],
          "internalType": "struct FormContract.surveyFormLocked",
          "name": "",
          "type": "tuple"
        }
      ],
      "stateMutability": "view",
      "type": "function"
    },
    {
      "inputs": [
        {
          "internalType": "string",
          "name": "formId",
          "type": "string"
        }
      ],
      "name": "updateSurveyFormLockedAmountStatus",
      "outputs": [],
      "stateMutability": "nonpayable",
      "type": "function"
    }
  ],
  "bytecode": "0x6080604052735121b6ffc63a2832b67fe318a3fc1e08cc4204a0600560006101000a81548173ffffffffffffffffffffffffffffffffffffffff021916908373ffffffffffffffffffffffffffffffffffffffff16021790555034801561006557600080fd5b50611179806100756000396000f3fe6080604052600436106100915760003560e01c8063863adb2411610059578063863adb241461015f578063ab777c9f14610188578063ccc8431b146101b1578063f49a8f7c146101dc578063fc3510581461021957610091565b8063020ec6ea1461009657806303f6055e146100b257806319d0a475146100db57806319fddc8014610106578063541dc5ba14610122575b600080fd5b6100b060048036038101906100ab9190610b28565b610242565b005b3480156100be57600080fd5b506100d960048036038101906100d49190610a27565b610334565b005b3480156100e757600080fd5b506100f061038b565b6040516100fd9190610d9a565b60405180910390f35b610120600480360381019061011b9190610ad4565b6104a0565b005b34801561012e57600080fd5b5061014960048036038101906101449190610a27565b61059f565b6040516101569190610e1e565b60405180910390f35b34801561016b57600080fd5b5061018660048036038101906101819190610a27565b6105fc565b005b34801561019457600080fd5b506101af60048036038101906101aa9190610a68565b610677565b005b3480156101bd57600080fd5b506101c66106d3565b6040516101d39190610dbc565b60405180910390f35b3480156101e857600080fd5b5061020360048036038101906101fe9190610a27565b6107a2565b6040516102109190610d9a565b60405180910390f35b34801561022557600080fd5b50610240600480360381019061023b9190610a27565b610899565b005b670de0b6b3a7640000826102569190610f61565b3414610297576040517f08c379a000000000000000000000000000000000000000000000000000000000815260040161028e90610dfe565b60405180910390fd5b600034116102da576040517f08c379a00000000000000000000000000000000000000000000000000000000081526004016102d190610dde565b60405180910390fd5b81600460008373ffffffffffffffffffffffffffffffffffffffff1673ffffffffffffffffffffffffffffffffffffffff16815260200190815260200160002060008282546103299190610f0b565b925050819055505050565b80600260003373ffffffffffffffffffffffffffffffffffffffff1673ffffffffffffffffffffffffffffffffffffffff16815260200190815260200160002090805190602001906103879291906108d6565b5050565b60606000803373ffffffffffffffffffffffffffffffffffffffff1673ffffffffffffffffffffffffffffffffffffffff168152602001908152602001600020805480602002602001604051908101604052809291908181526020016000905b8282101561049757838290600052602060002001805461040a90611045565b80601f016020809104026020016040519081016040528092919081815260200182805461043690611045565b80156104835780601f1061045857610100808354040283529160200191610483565b820191906000526020600020905b81548152906001019060200180831161046657829003601f168201915b5050505050815260200190600101906103eb565b50505050905090565b670de0b6b3a7640000816104b49190610f61565b34146104f5576040517f08c379a00000000000000000000000000000000000000000000000000000000081526004016104ec90610dfe565b60405180910390fd5b60003411610538576040517f08c379a000000000000000000000000000000000000000000000000000000000815260040161052f90610dde565b60405180910390fd5b6040518060400160405280828152602001600115158152506003836040516105609190610d83565b90815260200160405180910390206000820151816000015560208201518160010160006101000a81548160ff0219169083151502179055509050505050565b6105a761095c565b6003826040516105b79190610d83565b9081526020016040518091039020604051806040016040529081600082015481526020016001820160009054906101000a900460ff1615151515815250509050919050565b6000803373ffffffffffffffffffffffffffffffffffffffff1673ffffffffffffffffffffffffffffffffffffffff168152602001908152602001600020819080600181540180825580915050600190039060005260206000200160009091909190915090805190602001906106739291906108d6565b5050565b6001826040516106879190610d83565b9081526020016040518091039020819080600181540180825580915050600190039060005260206000200160009091909190915090805190602001906106ce9291906108d6565b505050565b6060600260003373ffffffffffffffffffffffffffffffffffffffff1673ffffffffffffffffffffffffffffffffffffffff168152602001908152602001600020805461071f90611045565b80601f016020809104026020016040519081016040528092919081815260200182805461074b90611045565b80156107985780601f1061076d57610100808354040283529160200191610798565b820191906000526020600020905b81548152906001019060200180831161077b57829003601f168201915b5050505050905090565b60606001826040516107b49190610d83565b9081526020016040518091039020805480602002602001604051908101604052809291908181526020016000905b8282101561088e57838290600052602060002001805461080190611045565b80601f016020809104026020016040519081016040528092919081815260200182805461082d90611045565b801561087a5780601f1061084f5761010080835404028352916020019161087a565b820191906000526020600020905b81548152906001019060200180831161085d57829003601f168201915b5050505050815260200190600101906107e2565b505050509050919050565b60006003826040516108ab9190610d83565b908152602001604051809103902060010160006101000a81548160ff02191690831515021790555050565b8280546108e290611045565b90600052602060002090601f016020900481019282610904576000855561094b565b82601f1061091d57805160ff191683800117855561094b565b8280016001018555821561094b579182015b8281111561094a57825182559160200191906001019061092f565b5b5090506109589190610978565b5090565b6040518060400160405280600081526020016000151581525090565b5b80821115610991576000816000905550600101610979565b5090565b60006109a86109a384610e6a565b610e39565b9050828152602081018484840111156109c057600080fd5b6109cb848285611003565b509392505050565b6000813590506109e281611115565b92915050565b600082601f8301126109f957600080fd5b8135610a09848260208601610995565b91505092915050565b600081359050610a218161112c565b92915050565b600060208284031215610a3957600080fd5b600082013567ffffffffffffffff811115610a5357600080fd5b610a5f848285016109e8565b91505092915050565b60008060408385031215610a7b57600080fd5b600083013567ffffffffffffffff811115610a9557600080fd5b610aa1858286016109e8565b925050602083013567ffffffffffffffff811115610abe57600080fd5b610aca858286016109e8565b9150509250929050565b60008060408385031215610ae757600080fd5b600083013567ffffffffffffffff811115610b0157600080fd5b610b0d858286016109e8565b9250506020610b1e85828601610a12565b9150509250929050565b60008060408385031215610b3b57600080fd5b6000610b4985828601610a12565b9250506020610b5a858286016109d3565b9150509250929050565b6000610b708383610bfc565b905092915050565b6000610b8382610eaa565b610b8d8185610ecd565b935083602082028501610b9f85610e9a565b8060005b85811015610bdb5784840389528151610bbc8582610b64565b9450610bc783610ec0565b925060208a01995050600181019050610ba3565b50829750879550505050505092915050565b610bf681610fcd565b82525050565b6000610c0782610eb5565b610c118185610ede565b9350610c21818560208601611012565b610c2a81611104565b840191505092915050565b6000610c4082610eb5565b610c4a8185610eef565b9350610c5a818560208601611012565b610c6381611104565b840191505092915050565b6000610c7982610eb5565b610c838185610f00565b9350610c93818560208601611012565b80840191505092915050565b6000610cac601183610eef565b91507f6d73672e76616c7565206973207a65726f0000000000000000000000000000006000830152602082019050919050565b6000610cec602883610eef565b91507f6d73672e76616c756520646f65736e2774206d6174636820616d6f756e74207360008301527f75626d69747465640000000000000000000000000000000000000000000000006020830152604082019050919050565b604082016000820151610d5b6000850182610d74565b506020820151610d6e6020850182610bed565b50505050565b610d7d81610ff9565b82525050565b6000610d8f8284610c6e565b915081905092915050565b60006020820190508181036000830152610db48184610b78565b905092915050565b60006020820190508181036000830152610dd68184610c35565b905092915050565b60006020820190508181036000830152610df781610c9f565b9050919050565b60006020820190508181036000830152610e1781610cdf565b9050919050565b6000604082019050610e336000830184610d45565b92915050565b6000604051905081810181811067ffffffffffffffff82111715610e6057610e5f6110d5565b5b8060405250919050565b600067ffffffffffffffff821115610e8557610e846110d5565b5b601f19601f8301169050602081019050919050565b6000819050602082019050919050565b600081519050919050565b600081519050919050565b6000602082019050919050565b600082825260208201905092915050565b600082825260208201905092915050565b600082825260208201905092915050565b600081905092915050565b6000610f1682610ff9565b9150610f2183610ff9565b9250827fffffffffffffffffffffffffffffffffffffffffffffffffffffffffffffffff03821115610f5657610f55611077565b5b828201905092915050565b6000610f6c82610ff9565b9150610f7783610ff9565b9250817fffffffffffffffffffffffffffffffffffffffffffffffffffffffffffffffff0483118215151615610fb057610faf611077565b5b828202905092915050565b6000610fc682610fd9565b9050919050565b60008115159050919050565b600073ffffffffffffffffffffffffffffffffffffffff82169050919050565b6000819050919050565b82818337600083830152505050565b60005b83811015611030578082015181840152602081019050611015565b8381111561103f576000848401525b50505050565b6000600282049050600182168061105d57607f821691505b60208210811415611071576110706110a6565b5b50919050565b7f4e487b7100000000000000000000000000000000000000000000000000000000600052601160045260246000fd5b7f4e487b7100000000000000000000000000000000000000000000000000000000600052602260045260246000fd5b7f4e487b7100000000000000000000000000000000000000000000000000000000600052604160045260246000fd5b6000601f19601f8301169050919050565b61111e81610fbb565b811461112957600080fd5b50565b61113581610ff9565b811461114057600080fd5b5056fea26469706673582212204f306b74128c56a95ed1c56d63e6ed68511576e9f293b597b852032944755a0964736f6c63430008000033",
  "linkReferences": {},
  "deployedLinkReferences": {}
}